{
  "_format": "hh-sol-artifact-1",
  "contractName": "BudgetLedger",
  "sourceName": "contracts/BudgetLedger.sol",
  "abi": [
    {
      "anonymous": false,
      "inputs": [
        {
          "indexed": true,
          "internalType": "uint256",
          "name": "onchainId",
          "type": "uint256"
        },
        {
          "indexed": false,
          "internalType": "address",
          "name": "from",
          "type": "address"
        },
        {
          "indexed": false,
          "internalType": "uint256",
          "name": "amount",
          "type": "uint256"
        }
      ],
      "name": "DepositForInstitution",
      "type": "event"
    },
    {
      "anonymous": false,
      "inputs": [
        {
          "indexed": true,
          "internalType": "uint256",
          "name": "onchainId",
          "type": "uint256"
        },
        {
          "indexed": false,
          "internalType": "string",
          "name": "name",
          "type": "string"
        },
        {
          "indexed": false,
          "internalType": "address",
          "name": "auditor",
          "type": "address"
        }
      ],
      "name": "InstitutionRegistered",
      "type": "event"
    },
    {
      "anonymous": false,
      "inputs": [
        {
          "indexed": true,
          "internalType": "uint256",
          "name": "txId",
          "type": "uint256"
        },
        {
          "indexed": true,
          "internalType": "uint256",
          "name": "onchainId",
          "type": "uint256"
        },
        {
          "indexed": false,
          "internalType": "address",
          "name": "creator",
          "type": "address"
        }
      ],
      "name": "TransactionCreated",
      "type": "event"
    },
    {
      "anonymous": false,
      "inputs": [
        {
          "indexed": true,
          "internalType": "uint256",
          "name": "txId",
          "type": "uint256"
        },
        {
          "indexed": false,
          "internalType": "address",
          "name": "receiver",
          "type": "address"
        },
        {
          "indexed": false,
          "internalType": "uint256",
          "name": "amount",
          "type": "uint256"
        }
      ],
      "name": "TransactionPaid",
      "type": "event"
    },
    {
      "anonymous": false,
      "inputs": [
        {
          "indexed": true,
          "internalType": "uint256",
          "name": "txId",
          "type": "uint256"
        },
        {
          "indexed": false,
          "internalType": "uint8",
          "name": "status",
          "type": "uint8"
        },
        {
          "indexed": false,
          "internalType": "string",
          "name": "auditorComment",
          "type": "string"
        }
      ],
      "name": "TransactionReviewed",
      "type": "event"
    },
    {
      "inputs": [
        {
          "internalType": "uint256",
          "name": "_onchainInstitutionId",
          "type": "uint256"
        },
        {
          "internalType": "address",
          "name": "_receiver",
          "type": "address"
        },
        {
          "internalType": "uint256",
          "name": "_amount",
          "type": "uint256"
        },
        {
          "internalType": "string",
          "name": "_purpose",
          "type": "string"
        },
        {
          "internalType": "string",
          "name": "_comment",
          "type": "string"
        }
      ],
      "name": "createTransaction",
      "outputs": [
        {
          "internalType": "uint256",
          "name": "",
          "type": "uint256"
        }
      ],
      "stateMutability": "nonpayable",
      "type": "function"
    },
    {
      "inputs": [
        {
          "internalType": "uint256",
          "name": "_onchainInstitutionId",
          "type": "uint256"
        }
      ],
      "name": "depositForInstitution",
      "outputs": [],
      "stateMutability": "payable",
      "type": "function"
    },
    {
      "inputs": [
        {
          "internalType": "uint256",
          "name": "_onchainInstitutionId",
          "type": "uint256"
        }
      ],
      "name": "getInstitutionBalance",
      "outputs": [
        {
          "internalType": "uint256",
          "name": "",
          "type": "uint256"
        }
      ],
      "stateMutability": "view",
      "type": "function"
    },
    {
      "inputs": [
        {
          "internalType": "uint256",
          "name": "_onchainInstitutionId",
          "type": "uint256"
        }
      ],
      "name": "getTxIdsForInstitution",
      "outputs": [
        {
          "internalType": "uint256[]",
          "name": "",
          "type": "uint256[]"
        }
      ],
      "stateMutability": "view",
      "type": "function"
    },
    {
      "inputs": [
        {
          "internalType": "uint256",
          "name": "",
          "type": "uint256"
        }
      ],
      "name": "institutionBalance",
      "outputs": [
        {
          "internalType": "uint256",
          "name": "",
          "type": "uint256"
        }
      ],
      "stateMutability": "view",
      "type": "function"
    },
    {
      "inputs": [],
      "name": "institutionCount",
      "outputs": [
        {
          "internalType": "uint256",
          "name": "",
          "type": "uint256"
        }
      ],
      "stateMutability": "view",
      "type": "function"
    },
    {
      "inputs": [
        {
          "internalType": "uint256",
          "name": "",
          "type": "uint256"
        },
        {
          "internalType": "uint256",
          "name": "",
          "type": "uint256"
        }
      ],
      "name": "institutionTxs",
      "outputs": [
        {
          "internalType": "uint256",
          "name": "",
          "type": "uint256"
        }
      ],
      "stateMutability": "view",
      "type": "function"
    },
    {
      "inputs": [
        {
          "internalType": "uint256",
          "name": "",
          "type": "uint256"
        }
      ],
      "name": "institutions",
      "outputs": [
        {
          "internalType": "string",
          "name": "name",
          "type": "string"
        },
        {
          "internalType": "string",
          "name": "location",
          "type": "string"
        },
        {
          "internalType": "address",
          "name": "auditor",
          "type": "address"
        },
        {
          "internalType": "bool",
          "name": "exists",
          "type": "bool"
        }
      ],
      "stateMutability": "view",
      "type": "function"
    },
    {
      "inputs": [
        {
          "internalType": "string",
          "name": "_name",
          "type": "string"
        },
        {
          "internalType": "string",
          "name": "_location",
          "type": "string"
        },
        {
          "internalType": "address",
          "name": "_auditor",
          "type": "address"
        }
      ],
      "name": "registerInstitution",
      "outputs": [
        {
          "internalType": "uint256",
          "name": "",
          "type": "uint256"
        }
      ],
      "stateMutability": "nonpayable",
      "type": "function"
    },
    {
      "inputs": [
        {
          "internalType": "uint256",
          "name": "_txId",
          "type": "uint256"
        },
        {
          "internalType": "uint8",
          "name": "_status",
          "type": "uint8"
        },
        {
          "internalType": "string",
          "name": "_auditorComment",
          "type": "string"
        }
      ],
      "name": "reviewTransaction",
      "outputs": [],
      "stateMutability": "nonpayable",
      "type": "function"
    },
    {
      "inputs": [
        {
          "internalType": "uint256",
          "name": "",
          "type": "uint256"
        }
      ],
      "name": "transactions",
      "outputs": [
        {
          "internalType": "uint256",
          "name": "id",
          "type": "uint256"
        },
        {
          "internalType": "uint256",
          "name": "institutionOnchainId",
          "type": "uint256"
        },
        {
          "internalType": "address",
          "name": "creator",
          "type": "address"
        },
        {
          "internalType": "address",
          "name": "receiver",
          "type": "address"
        },
        {
          "internalType": "uint256",
          "name": "amount",
          "type": "uint256"
        },
        {
          "internalType": "string",
          "name": "purpose",
          "type": "string"
        },
        {
          "internalType": "string",
          "name": "comment",
          "type": "string"
        },
        {
          "internalType": "enum BudgetLedger.TxStatus",
          "name": "status",
          "type": "uint8"
        },
        {
          "internalType": "uint256",
          "name": "createdAt",
          "type": "uint256"
        },
        {
          "internalType": "string",
          "name": "auditorComment",
          "type": "string"
        }
      ],
      "stateMutability": "view",
      "type": "function"
    },
    {
      "inputs": [],
      "name": "txCount",
      "outputs": [
        {
          "internalType": "uint256",
          "name": "",
          "type": "uint256"
        }
      ],
      "stateMutability": "view",
      "type": "function"
    }
  ],
  "bytecode": "0x608060405234801561001057600080fd5b50612368806100206000396000f3fe6080604052600436106100a75760003560e01c80639ace38c2116100645780639ace38c2146101d3578063beab35be14610219578063c3b59d0014610256578063e8fc3ef814610296578063f2835fcd146102c1578063f76c2778146102fe576100a7565b80630419f84f146100ac5780631100b6e3146100e9578063125ee3ee146101125780633c5406871461014f578063522842d11461017a5780638aab9c99146101b7575b600080fd5b3480156100b857600080fd5b506100d360048036038101906100ce9190611365565b61033b565b6040516100e091906113b4565b60405180910390f35b3480156100f557600080fd5b50610110600480360381019061010b919061154e565b61036c565b005b34801561011e57600080fd5b50610139600480360381019061013491906115bd565b6108c0565b60405161014691906116a8565b60405180910390f35b34801561015b57600080fd5b5061016461092b565b60405161017191906113b4565b60405180910390f35b34801561018657600080fd5b506101a1600480360381019061019c9190611728565b610931565b6040516101ae91906113b4565b60405180910390f35b6101d160048036038101906101cc91906115bd565b610ae4565b005b3480156101df57600080fd5b506101fa60048036038101906101f591906115bd565b610bae565b6040516102109a999897969594939291906118b8565b60405180910390f35b34801561022557600080fd5b50610240600480360381019061023b91906115bd565b610de7565b60405161024d91906113b4565b60405180910390f35b34801561026257600080fd5b5061027d600480360381019061027891906115bd565b610dff565b60405161028d9493929190611984565b60405180910390f35b3480156102a257600080fd5b506102ab610f6c565b6040516102b891906113b4565b60405180910390f35b3480156102cd57600080fd5b506102e860048036038101906102e391906119d7565b610f72565b6040516102f591906113b4565b60405180910390f35b34801561030a57600080fd5b50610325600480360381019061032091906115bd565b6112fe565b60405161033291906113b4565b60405180910390f35b6004602052816000526040600020818154811061035757600080fd5b90600052602060002001600091509150505481565b60008311801561037e57506001548311155b6103bd576040517f08c379a00000000000000000000000000000000000000000000000000000000081526004016103b490611ad6565b60405180910390fd5b60006003600085815260200190815260200160002090506000816001015490506002600082815260200190815260200160002060020160149054906101000a900460ff16610440576040517f08c379a000000000000000000000000000000000000000000000000000000000815260040161043790611b42565b60405180910390fd5b6002600082815260200190815260200160002060020160009054906101000a900473ffffffffffffffffffffffffffffffffffffffff1673ffffffffffffffffffffffffffffffffffffffff163373ffffffffffffffffffffffffffffffffffffffff16146104e4576040517f08c379a00000000000000000000000000000000000000000000000000000000081526004016104db90611bae565b60405180910390fd5b600060038111156104f8576104f7611841565b5b8260070160009054906101000a900460ff16600381111561051c5761051b611841565b5b148061055c575060038081111561053657610535611841565b5b8260070160009054906101000a900460ff16600381111561055a57610559611841565b5b145b61059b576040517f08c379a000000000000000000000000000000000000000000000000000000000815260040161059290611c1a565b60405180910390fd5b600160038111156105af576105ae611841565b5b60ff168460ff160361075857816004015460056000838152602001908152602001600020541015610615576040517f08c379a000000000000000000000000000000000000000000000000000000000815260040161060c90611c86565b60405180910390fd5b816004015460056000838152602001908152602001600020600082825461063c9190611cd5565b9250508190555060018260070160006101000a81548160ff0219169083600381111561066b5761066a611841565b5b0217905550828260090190816106819190611f15565b508160030160009054906101000a900473ffffffffffffffffffffffffffffffffffffffff1673ffffffffffffffffffffffffffffffffffffffff166108fc83600401549081150290604051600060405180830381858888f193505050501580156106f0573d6000803e3d6000fd5b50847f08630ddb7c5261c6aadfed2fd7936e278d9f28c6806fd1a1c482dbe07272ff588360030160009054906101000a900473ffffffffffffffffffffffffffffffffffffffff16846004015460405161074b929190611fe7565b60405180910390a261085c565b6002600381111561076c5761076b611841565b5b60ff168460ff16036107bc5760028260070160006101000a81548160ff021916908360038111156107a05761079f611841565b5b0217905550828260090190816107b69190611f15565b5061085b565b6003808111156107cf576107ce611841565b5b60ff168460ff160361081f5760038260070160006101000a81548160ff0219169083600381111561080357610802611841565b5b0217905550828260090190816108199190611f15565b5061085a565b6040517f08c379a00000000000000000000000000000000000000000000000000000000081526004016108519061205c565b60405180910390fd5b5b5b847f637e9203ff131214fe8b8630945125b09a1770a51c154a6394656a8b2d7aaaa98360070160009054906101000a900460ff1660038111156108a2576108a1611841565b5b856040516108b192919061208b565b60405180910390a25050505050565b60606004600083815260200190815260200160002080548060200260200160405190810160405280929190818152602001828054801561091f57602002820191906000526020600020905b81548152602001906001019080831161090b575b50505050509050919050565b60015481565b60008073ffffffffffffffffffffffffffffffffffffffff168273ffffffffffffffffffffffffffffffffffffffff16036109a1576040517f08c379a000000000000000000000000000000000000000000000000000000000815260040161099890612107565b60405180910390fd5b6000808154809291906109b390612127565b919050555060405180608001604052808581526020018481526020018373ffffffffffffffffffffffffffffffffffffffff1681526020016001151581525060026000805481526020019081526020016000206000820151816000019081610a1b9190611f15565b506020820151816001019081610a319190611f15565b5060408201518160020160006101000a81548173ffffffffffffffffffffffffffffffffffffffff021916908373ffffffffffffffffffffffffffffffffffffffff16021790555060608201518160020160146101000a81548160ff0219169083151502179055509050506000547f26b117662e7cf00ed76ac5c6213b827840578707273060e81043667e0295571d8584604051610ad092919061216f565b60405180910390a260005490509392505050565b6002600082815260200190815260200160002060020160149054906101000a900460ff16610b47576040517f08c379a0000000000000000000000000000000000000000000000000000000008152600401610b3e906121eb565b60405180910390fd5b34600560008381526020019081526020016000206000828254610b6a919061220b565b92505081905550807ff42d3f46663b03abe9861c3d2e5632bea5c9e511522fec06d5f938286762ba433334604051610ba3929190611fe7565b60405180910390a250565b60036020528060005260406000206000915090508060000154908060010154908060020160009054906101000a900473ffffffffffffffffffffffffffffffffffffffff16908060030160009054906101000a900473ffffffffffffffffffffffffffffffffffffffff1690806004015490806005018054610c2f90611d38565b80601f0160208091040260200160405190810160405280929190818152602001828054610c5b90611d38565b8015610ca85780601f10610c7d57610100808354040283529160200191610ca8565b820191906000526020600020905b815481529060010190602001808311610c8b57829003601f168201915b505050505090806006018054610cbd90611d38565b80601f0160208091040260200160405190810160405280929190818152602001828054610ce990611d38565b8015610d365780601f10610d0b57610100808354040283529160200191610d36565b820191906000526020600020905b815481529060010190602001808311610d1957829003601f168201915b5050505050908060070160009054906101000a900460ff1690806008015490806009018054610d6490611d38565b80601f0160208091040260200160405190810160405280929190818152602001828054610d9090611d38565b8015610ddd5780601f10610db257610100808354040283529160200191610ddd565b820191906000526020600020905b815481529060010190602001808311610dc057829003601f168201915b505050505090508a565b60056020528060005260406000206000915090505481565b6002602052806000526040600020600091509050806000018054610e2290611d38565b80601f0160208091040260200160405190810160405280929190818152602001828054610e4e90611d38565b8015610e9b5780601f10610e7057610100808354040283529160200191610e9b565b820191906000526020600020905b815481529060010190602001808311610e7e57829003601f168201915b505050505090806001018054610eb090611d38565b80601f0160208091040260200160405190810160405280929190818152602001828054610edc90611d38565b8015610f295780601f10610efe57610100808354040283529160200191610f29565b820191906000526020600020905b815481529060010190602001808311610f0c57829003601f168201915b5050505050908060020160009054906101000a900473ffffffffffffffffffffffffffffffffffffffff16908060020160149054906101000a900460ff16905084565b60005481565b60006002600087815260200190815260200160002060020160149054906101000a900460ff16610fd7576040517f08c379a0000000000000000000000000000000000000000000000000000000008152600401610fce906121eb565b60405180910390fd5b600073ffffffffffffffffffffffffffffffffffffffff168573ffffffffffffffffffffffffffffffffffffffff1603611046576040517f08c379a000000000000000000000000000000000000000000000000000000000815260040161103d9061228b565b60405180910390fd5b60008411611089576040517f08c379a0000000000000000000000000000000000000000000000000000000008152600401611080906122f7565b60405180910390fd5b6001600081548092919061109c90612127565b919050555060405180610140016040528060015481526020018781526020013373ffffffffffffffffffffffffffffffffffffffff1681526020018673ffffffffffffffffffffffffffffffffffffffff1681526020018581526020018481526020018381526020016000600381111561111957611118611841565b5b815260200142815260200160405180602001604052806000815250815250600360006001548152602001908152602001600020600082015181600001556020820151816001015560408201518160020160006101000a81548173ffffffffffffffffffffffffffffffffffffffff021916908373ffffffffffffffffffffffffffffffffffffffff16021790555060608201518160030160006101000a81548173ffffffffffffffffffffffffffffffffffffffff021916908373ffffffffffffffffffffffffffffffffffffffff1602179055506080820151816004015560a082015181600501908161120d9190611f15565b5060c08201518160060190816112239190611f15565b5060e08201518160070160006101000a81548160ff0219169083600381111561124f5761124e611841565b5b021790555061010082015181600801556101208201518160090190816112759190611f15565b50905050600460008781526020019081526020016000206001549080600181540180825580915050600190039060005260206000200160009091909190915055856001547f106084fb46505c06958323263745ad47e9941babc295f2754ffb90467add4803336040516112e89190612317565b60405180910390a3600154905095945050505050565b600060056000838152602001908152602001600020549050919050565b6000604051905090565b600080fd5b600080fd5b6000819050919050565b6113428161132f565b811461134d57600080fd5b50565b60008135905061135f81611339565b92915050565b6000806040838503121561137c5761137b611325565b5b600061138a85828601611350565b925050602061139b85828601611350565b9150509250929050565b6113ae8161132f565b82525050565b60006020820190506113c960008301846113a5565b92915050565b600060ff82169050919050565b6113e5816113cf565b81146113f057600080fd5b50565b600081359050611402816113dc565b92915050565b600080fd5b600080fd5b6000601f19601f8301169050919050565b7f4e487b7100000000000000000000000000000000000000000000000000000000600052604160045260246000fd5b61145b82611412565b810181811067ffffffffffffffff8211171561147a57611479611423565b5b80604052505050565b600061148d61131b565b90506114998282611452565b919050565b600067ffffffffffffffff8211156114b9576114b8611423565b5b6114c282611412565b9050602081019050919050565b82818337600083830152505050565b60006114f16114ec8461149e565b611483565b90508281526020810184848401111561150d5761150c61140d565b5b6115188482856114cf565b509392505050565b600082601f83011261153557611534611408565b5b81356115458482602086016114de565b91505092915050565b60008060006060848603121561156757611566611325565b5b600061157586828701611350565b9350506020611586868287016113f3565b925050604084013567ffffffffffffffff8111156115a7576115a661132a565b5b6115b386828701611520565b9150509250925092565b6000602082840312156115d3576115d2611325565b5b60006115e184828501611350565b91505092915050565b600081519050919050565b600082825260208201905092915050565b6000819050602082019050919050565b61161f8161132f565b82525050565b60006116318383611616565b60208301905092915050565b6000602082019050919050565b6000611655826115ea565b61165f81856115f5565b935061166a83611606565b8060005b8381101561169b5781516116828882611625565b975061168d8361163d565b92505060018101905061166e565b5085935050505092915050565b600060208201905081810360008301526116c2818461164a565b905092915050565b600073ffffffffffffffffffffffffffffffffffffffff82169050919050565b60006116f5826116ca565b9050919050565b611705816116ea565b811461171057600080fd5b50565b600081359050611722816116fc565b92915050565b60008060006060848603121561174157611740611325565b5b600084013567ffffffffffffffff81111561175f5761175e61132a565b5b61176b86828701611520565b935050602084013567ffffffffffffffff81111561178c5761178b61132a565b5b61179886828701611520565b92505060406117a986828701611713565b9150509250925092565b6117bc816116ea565b82525050565b600081519050919050565b600082825260208201905092915050565b60005b838110156117fc5780820151818401526020810190506117e1565b60008484015250505050565b6000611813826117c2565b61181d81856117cd565b935061182d8185602086016117de565b61183681611412565b840191505092915050565b7f4e487b7100000000000000000000000000000000000000000000000000000000600052602160045260246000fd5b6004811061188157611880611841565b5b50565b600081905061189282611870565b919050565b60006118a282611884565b9050919050565b6118b281611897565b82525050565b6000610140820190506118ce600083018d6113a5565b6118db602083018c6113a5565b6118e8604083018b6117b3565b6118f5606083018a6117b3565b61190260808301896113a5565b81810360a08301526119148188611808565b905081810360c08301526119288187611808565b905061193760e08301866118a9565b6119456101008301856113a5565b8181036101208301526119588184611808565b90509b9a5050505050505050505050565b60008115159050919050565b61197e81611969565b82525050565b6000608082019050818103600083015261199e8187611808565b905081810360208301526119b28186611808565b90506119c160408301856117b3565b6119ce6060830184611975565b95945050505050565b600080600080600060a086880312156119f3576119f2611325565b5b6000611a0188828901611350565b9550506020611a1288828901611713565b9450506040611a2388828901611350565b935050606086013567ffffffffffffffff811115611a4457611a4361132a565b5b611a5088828901611520565b925050608086013567ffffffffffffffff811115611a7157611a7061132a565b5b611a7d88828901611520565b9150509295509295909350565b7f7478206e6f7420666f756e640000000000000000000000000000000000000000600082015250565b6000611ac0600c836117cd565b9150611acb82611a8a565b602082019050919050565b60006020820190508181036000830152611aef81611ab3565b9050919050565b7f696e7374206e6f7420666f756e64000000000000000000000000000000000000600082015250565b6000611b2c600e836117cd565b9150611b3782611af6565b602082019050919050565b60006020820190508181036000830152611b5b81611b1f565b9050919050565b7f6f6e6c792061756469746f720000000000000000000000000000000000000000600082015250565b6000611b98600c836117cd565b9150611ba382611b62565b602082019050919050565b60006020820190508181036000830152611bc781611b8b565b9050919050565b7f6e6f74206564697461626c650000000000000000000000000000000000000000600082015250565b6000611c04600c836117cd565b9150611c0f82611bce565b602082019050919050565b60006020820190508181036000830152611c3381611bf7565b9050919050565b7f696e73756666696369656e7420696e737469747574696f6e2062616c616e6365600082015250565b6000611c706020836117cd565b9150611c7b82611c3a565b602082019050919050565b60006020820190508181036000830152611c9f81611c63565b9050919050565b7f4e487b7100000000000000000000000000000000000000000000000000000000600052601160045260246000fd5b6000611ce08261132f565b9150611ceb8361132f565b9250828203905081811115611d0357611d02611ca6565b5b92915050565b7f4e487b7100000000000000000000000000000000000000000000000000000000600052602260045260246000fd5b60006002820490506001821680611d5057607f821691505b602082108103611d6357611d62611d09565b5b50919050565b60008190508160005260206000209050919050565b60006020601f8301049050919050565b600082821b905092915050565b600060088302611dcb7fffffffffffffffffffffffffffffffffffffffffffffffffffffffffffffffff82611d8e565b611dd58683611d8e565b95508019841693508086168417925050509392505050565b6000819050919050565b6000611e12611e0d611e088461132f565b611ded565b61132f565b9050919050565b6000819050919050565b611e2c83611df7565b611e40611e3882611e19565b848454611d9b565b825550505050565b600090565b611e55611e48565b611e60818484611e23565b505050565b5b81811015611e8457611e79600082611e4d565b600181019050611e66565b5050565b601f821115611ec957611e9a81611d69565b611ea384611d7e565b81016020851015611eb2578190505b611ec6611ebe85611d7e565b830182611e65565b50505b505050565b600082821c905092915050565b6000611eec60001984600802611ece565b1980831691505092915050565b6000611f058383611edb565b9150826002028217905092915050565b611f1e826117c2565b67ffffffffffffffff811115611f3757611f36611423565b5b611f418254611d38565b611f4c828285611e88565b600060209050601f831160018114611f7f5760008415611f6d578287015190505b611f778582611ef9565b865550611fdf565b601f198416611f8d86611d69565b60005b82811015611fb557848901518255600182019150602085019450602081019050611f90565b86831015611fd25784890151611fce601f891682611edb565b8355505b6001600288020188555050505b505050505050565b6000604082019050611ffc60008301856117b3565b61200960208301846113a5565b9392505050565b7f696e76616c696420737461747573000000000000000000000000000000000000600082015250565b6000612046600e836117cd565b915061205182612010565b602082019050919050565b6000602082019050818103600083015261207581612039565b9050919050565b612085816113cf565b82525050565b60006040820190506120a0600083018561207c565b81810360208301526120b28184611808565b90509392505050565b7f61756469746f72207a65726f0000000000000000000000000000000000000000600082015250565b60006120f1600c836117cd565b91506120fc826120bb565b602082019050919050565b60006020820190508181036000830152612120816120e4565b9050919050565b60006121328261132f565b91507fffffffffffffffffffffffffffffffffffffffffffffffffffffffffffffffff820361216457612163611ca6565b5b600182019050919050565b600060408201905081810360008301526121898185611808565b905061219860208301846117b3565b9392505050565b7f6e6f207375636820696e737469747574696f6e00000000000000000000000000600082015250565b60006121d56013836117cd565b91506121e08261219f565b602082019050919050565b60006020820190508181036000830152612204816121c8565b9050919050565b60006122168261132f565b91506122218361132f565b925082820190508082111561223957612238611ca6565b5b92915050565b7f7a65726f20726563656976657200000000000000000000000000000000000000600082015250565b6000612275600d836117cd565b91506122808261223f565b602082019050919050565b600060208201905081810360008301526122a481612268565b9050919050565b7f616d6f756e74207a65726f000000000000000000000000000000000000000000600082015250565b60006122e1600b836117cd565b91506122ec826122ab565b602082019050919050565b60006020820190508181036000830152612310816122d4565b9050919050565b600060208201905061232c60008301846117b3565b9291505056fea2646970667358221220881fbb1116834d4339b537cc6a0764c49c254fc37c277e04b7917a118887e4e564736f6c63430008140033",
  "linkReferences": {},
  "deployedLinkReferences": {}
}